:020000040800F2
:10000000500A0020295F000861020008630200080E
:10001000670200086B0200086F0200080000000081
:100020000000000000000000000000007302000853
:10003000750200080000000077020008790200083D
:10004000435F0008435F0008435F0008435F000808
:10005000435F0008435F0008435F0008435F0008F8
:10006000435F0008435F0008435F0008435F0008E8
:10007000435F0008435F0008435F0008435F0008D8
:10008000435F0008435F0008435F0008435F0008C8
:10009000435F0008435F0008435F0008554D0008B8
:1000A000435F0008435F0008435F0008435F0008A8
:1000B000DB510008435F0008F1510008435F00086E
:1000C000435F0008435F0008435F0008435F000888
:1000D000435F0008D90700089F5E00082157000809
:1000E000435F0008435F0008435F0008DFF80CD05F
:1000F00008F0F2FC0048004701010008500A002007
:1001000088B0002400F0AAF900F012FA4FF416505B
:1001100000F024FB4FF4E13005F082FA04F04BFCD0
:1001200003F0D1FF00F0A9FD02F0B4FE05F072F873
:1001300004F0A0FF04F0E7FF05F094F841F61F413A
:10014000002005F02FF90C2338A20121002004F033
:1001500094F80C2338A20221002004F08EF80C231E
:1001600037A20321002004F088F84FF4FA6000F071
:10017000B2F95AE000F089FA04A805F0B3FADDE913
:100180000401CDE906012F48006808F0A8FA0546E9
:1001900001202A460B464621009004F0FBF8BDF9E9
:1001A00018200221082004F013FB27490968274A78
:1001B0001268881808F010FA0746254A254B08F0FF
:1001C0001CF9054608F053FA81464A4603210520EA
:1001D00004F0FEFAB4F5967F22DB00241A49096880
:1001E0001A4A1268881808F0E9F980461A4907F097
:1001F000EDFF054608F073FACDE9040113480168E4
:10020000114802689DF81D00CDE9012100909DF87C
:100210001C30BDF91A20BDF91810104808F09CFEDA
:10022000052000F058F9601D84B2A3E76A69616F88
:100230002064753A00000000766973696F6E3A00B9
:1002400073643A0000000020180000201C00002009
:100250000AD7A3703D0A0340EC51184070B500085E
:10026000704700BFFEE700BFFEE700BFFEE700BF2C
:10027000FEE7704770477047704700000CB50020DC
:10028000019000906C48006840F480306A49086032
:1002900000BF6948006800F4003000900198401CDD
:1002A0000190009818B90198B0F5A06FF1D162489B
:1002B000006800F4003010B10120009001E000203F
:1002C00000900098012843D15C48006840F010007D
:1002D0005A4908600846006820F003000860084694
:1002E000006840F002000860534840685249486086
:1002F0000846406848600846406840F480604860AE
:100300000846406820F47C1048600846406840F485
:10031000E81048600846006840F08070086000BF40
:100320004548006800F000700028F9D04248406855
:1003300020F00300404948600846406840F0020051
:10034000486000BF3C48406800F00C000828F9D124
:100350000CBD10B5FFF792FF10BD10B53648006810
:1003600040F00100344908600846406834490840BC
:100370003149486008460068324908402E49086003
:100380000846006820F4802008600846406820F491
:10039000FE0048604FF41F008860FFF7DAFF4FF05F
:1003A00000602949086010BD10B50021002000221E
:1003B000214B5B6803F00C0121B1042906D0082908
:1003C00028D107E0214B224C236027E01F4B204C13
:1003D000236023E0184B5B6803F47010164B5B68D6
:1003E00003F48032022303EB904022B9194B4343BC
:1003F000174C23600DE0104B5B6803F4003323B10E
:10040000144B4343124C236003E0104B4343104C06
:10041000236003E00D4B0E4C236000BF00BF064B72
:100420005B68C3F303130C4CE15C094B1B68CB40C6
:10043000074C236010BD0000001002400020024065
:100440000000FFF8FFFFF6FE08ED00E000127A0062
:100450003000002000093D003400002010B56FF08E
:10046000040005F0C2FD2E4800682E49B0FBF1F0F3
:100470002D4908700846007800EB4001C1EBC01020
:100480004FF6FF7101EAC0002849088010BD0146FF
:10049000254A12784A434FF0E0235A6100229A61BC
:1004A0001A46126942F001021A6100BF4FF0E022C1
:1004B000106900F001021AB100F48032002AF5D070
:1004C0004FF0E022126922F001024FF0E0231A619E
:1004D00000229A6170470146144A12884A434FF03D
:1004E000E0235A6100229A611A46126942F0010221
:1004F0001A6100BF4FF0E022106900F001021AB14A
:1005000000F48032002AF5D04FF0E022126922F088
:1005100001024FF0E0231A6100229A617047000047
:100520003000002000127A00440000204600002025
:1005300008B54FF4A06005F009FD17208DF8000004
:1005400001208DF8030000208DF801008DF80200D5
:10055000684605F000FD25208DF8000001208DF88B
:10056000030002208DF801008DF80200684605F0B6
:10057000F2FC27208DF8000001208DF803000220F6
:100580008DF801008DF80200684605F0E4FC262095
:100590008DF8000001208DF8030002208DF8010085
:1005A00001208DF80200684605F0D5FC08BD00006A
:1005B00000BF704700BFA74A128802F04002002A1D
:1005C000F9D0C2B2A34B1B1D1A8070472DE9F04F22
:1005D000A3B01DA81EA91FAB20AACDE9001021A918
:1005E00022A804F014FD1AAA1BA91CA805F04AFCB5
:1005F0001A9808F074F804460D461B9808F06FF836
:1006000006460F461C9808F06AF8804689461D98F1
:1006100008F065F882468B461E9808F060F8CDE930
:1006200018011F9808F05BF8CDE91601209808F032
:1006300056F8CDE91401219808F051F8CDE91201DE
:10064000229808F04CF8CDE908ABCDE90A89CDE94C
:100650000C67CDE90E45CDE91001DDE91801CDE9C2
:100660000601DDE91601CDE90401DDE91401CDE95A
:100670000201DDE91201CDE900017748DDE910232F
:1006800008F06AFC23B0BDE8F08FF0B59BB073486A
:10069000007800F0800008B91BB0F0BD6F4800780A
:1006A00000F03F05402D00D33F25002405E06C48B5
:1006B000005D0BA90855601CC4B2AC42F7DB0020FA
:1006C0000BA94855654908704021654807F016FA9E
:1006D00064A10BA807F024FA20B164A10BA807F0CD
:1006E0001FFA10B9FFF772FFD6E762A10BA807F057
:1006F00017FA18B961A008F02FFCCDE702A803ABE8
:1007000007AA6EA100900BA807F026FA032820D1B3
:100710006EA107A807F004FAD8B903A8029904F05B
:10072000E0FB20B903A8029905F08CFB60B10298A8
:1007300007F0D5FF064632460B4603A964A008F031
:100740000BFCFFF743FF03E003A965A008F004FCDE
:10075000A2E76AA008F000FC00BF9DE710B586B0D4
:100760000446012144F2050006F008F84FF4007039
:10077000ADF8140003208DF8160018208DF817002E
:1007800005A9674805F03EFD4FF48060ADF8140000
:1007900004208DF8170005A9614805F033FD019488
:1007A0000020ADF80800ADF80A00ADF80C00ADF877
:1007B00010000C20ADF80E0001A9264806F093FFAA
:1007C000012240F22551234807F025F80121214854
:1007D00007F015F806B010BD10B540F225511D48C0
:1007E00007F0FEF810B31B4807F07AF8C4B21B48B4
:1007F000007800F08000C8B91848007800F0400088
:1008000060B10A2C03D000201449087020E013487E
:10081000007840F080001149087019E00D2C06D1D5
:100820000E48007840F040000C49087010E00B487A
:10083000007800F03F000A490C5408480078401C3A
:1008400006490870084600783F2801DD002008703E
:1008500010BD000000380140E8B500084C00002041
:10086000A404002047455420504944005049443FC7
:100870000000000048454C5000000000434D443A41
:100880002053455420564B502F564B442F534B501A
:100890002F534B492F524B502F524B442F544B50F8
:1008A0002F544B492F544B442076616C207C2047B9
:1008B0004554205049440D0A00000000253135738D
:1008C0002025313573202566000000005345540073
:1008D0004F4B2025733D252E36660D0A0000000083
:1008E00045525220556E6B6E6F776E2050494420F2
:1008F0006E616D653A2025730D0A00004552522045
:10090000496E76616C696420636F6D6D616E642EF3
:1009100020547970652048454C500D0A00000000B5
:100920000008014010B50220FFF7B1FD10BD08B569
:100930000121082005F022FF1820ADF8000010204A
:100940008DF8030003208DF802006946834805F006
:1009500059FC08BD10B58148006820F470407F49FB
:1009600008600846006840F44050086001207C4957
:1009700008607C49C1F89001FFF7D4FF0020784956
:100980000860FFF7CFFF00207649C1F8900110BD45
:1009900010B57248006820F470407049086008463D
:1009A000006840F44050086000206D49091D08604F
:1009B0006C49C1F88C01FFF7B5FF01206849091D9A
:1009C00008606849C1F88C01FFF7ACFF10BD10B595
:1009D00000246248006820F47040604908600846BE
:1009E000006840F40040086001205D490860FFF79E
:1009F00099FF01205B49C1F89001FFF793FF07E0E1
:100A0000601CC4B2FA2C03DDFFF7C2FF012010BD49
:100A10005348803800680028F2D15149091D086008
:100A200000BFF4E710B500204D49091D08604B4890
:100A3000006820F47040494908600846006840F4A6
:100A40004050086000204749C1F88C01FFF76AFF59
:100A500001204349091D0860FFF764FF0020414958
:100A6000C1F8900110BD10B500203D49091D086076
:100A70003A48006820F47040384908600846006829
:100A800040F44050086001203649C1F88C01FFF75E
:100A900049FF01203249091D0860FFF743FF00208C
:100AA0003049C1F8900110BD70B504462B4800686C
:100AB00020F47040294908600846006840F440501E
:100AC000086000202649091D0860002512E0E009A1
:100AD000234908606006040E01202249C1F89001F4
:100AE000FFF720FF00201E49091D0860FFF71AFFCD
:100AF000681CC5B2082DEADB70BD70B50546002440
:100B00001648006820F470401449086008460068E0
:100B100040F400400860002615E000201049091D3F
:100B20000860FFF7FFFE01200E49C1F89001600642
:100B3000040E0B488038006808B1601CC4B2FFF78F
:100B4000F1FE701CC6B2082EE7DB15B9FFF78BFF6C
:100B500001E0FFF767FF204670BD0000000C014078
:100B60008C8121420080214270B505460C46FFF77A
:100B7000F1FED020FFF798FFFFF729FF18B1FFF72C
:100B800007FF012070BD2846FFF78EFFFFF71FFF0C
:100B90002046FFF789FFFFF71AFF18B1FFF7F8FEAD
:100BA0000120EFE7FFF7F4FE0020EBE770B5044605
:100BB0000025BC2C01DB012510E0622C01DB0225A5
:100BC0000CE02A2C01DB032508E0142C01DB0425B2
:100BD00004E00A2C01DB052500E0062529461A2041
:100BE000FFF7C2FF70BD70B50446B4F57A7F01DD32
:100BF0004FF47A74042C00DA04244FF47A7090FBDA
:100C0000F4F0401EC5B229461920FFF7ADFF054696
:100C1000264604EBD671C1F34F00FFF7C7FF70BD46
:100C200070B50446FFF796FED020FFF73DFFFFF7B3
:100C3000CEFE2046FFF738FFFFF7C9FEFFF78AFE1A
:100C4000D120FFF731FFFFF7C2FE0020FFF755FF6D
:100C50000546FFF79DFE284670BD10B50446E00628
:100C6000010E1C20FFF780FF10BD10B50446E00602
:100C7000010E1B20FFF778FF10BD10B5FFF757FEE0
:100C800080216B20FFF770FF6420FFF724FC002118
:100C90006B20FFF769FF0320FFF7E7FF0020FFF756
:100CA000DCFFC820FFF79FFF00213820FFF75CFF23
:100CB00000216A20FFF758FF00212320FFF754FF8F
:100CC00080213720FFF750FF7520FFF7A9FF04466A
:100CD000682C0BD101216B20FFF746FF00216C200F
:100CE000FFF742FF6420FFF77EFF01E0012010BD07
:100CF0000020FCE72DE9F04106460F4614461D464C
:100D0000FFF728FE002141EA4601C8B2FFF7CCFEFA
:100D1000FFF75DFE20B1FFF73BFE0120BDE8F0814B
:100D20003846FFF7C1FEFFF752FEFFF713FE012121
:100D300001EB4601C8B2FFF7B7FEFFF748FE0DE032
:100D4000012C04D10020FFF7D8FE287003E0012019
:100D5000FFF7D3FE2870601EC4B26D1C002CEFD1CB
:100D6000FFF716FE0020D9E72DE9F84F6B46022267
:100D700041216820FFF7BEFF9DF801009DF800109B
:100D800040EA01200FFA80FA504607F025FC804621
:100D900000224B4B07F0A3FB06464A4A4A4B07F09A
:100DA00085FA044607F0C6FC83464849584607F0D2
:100DB0000DFA044607F02EFC00B2BDE8F88F2DE9CD
:100DC000FC4104460D4616466B4606224321682028
:100DD000FFF790FF0746BFB99DF801009DF800108E
:100DE00040EA012000B220809DF803009DF8021027
:100DF00040EA012000B228809DF805009DF804100B
:100E000040EA012000B230803846BDE8FC812DE97F
:100E1000FC4104460D4616466B4606223B216820DF
:100E2000FFF768FF0746BFB99DF801009DF8001065
:100E300040EA012000B220809DF803009DF80210D6
:100E400040EA012000B228809DF805009DF80410BA
:100E500040EA012000B230803846BDE8FC812DE92F
:100E6000F04105460E4617469846FFF773FD0021F0
:100E700041EA4501C8B2FFF717FEFFF7A8FD20B110
:100E8000FFF786FD0120BDE8F0813046FFF70CFE3C
:100E9000FFF79DFD00240CE018F80400FFF704FEA6
:100EA000FFF795FD18B1FFF773FD0120EBE7601C1C
:100EB000C4B2BC42F0DBFFF76BFD0020E3E70000AB
:100EC00000407540A4703D0AD74342400000C8422C
:100ED00038B50446F74890F82400C0B114B1022098
:100EE000009001E000200090F24A1268D17BF14AA4
:100EF000526810786B460122FFF7B1FF10B14FF036
:100F0000FF3038BD9DF80010EA48417423E0E948FD
:100F1000807A10B94FF0FF30F3E724B1E548407C08
:100F200008B10020EDE714B10120009001E000209D
:100F30000090E04A1268D17BDE4A526810786B4616
:100F40000122FFF78CFF10B14FF0FF30D9E79DF879
:100F50000010D84841740020D3E738B500241FE0C2
:100F6000D4480068C07AA04204D0D2480068407DCE
:100F7000A04200D112E0CF49496808786B460122AF
:100F80002146FFF7B7FE10B14FF0FF3038BD9DF896
:100F900000202146C8A007F0DFFF00BF601CC4B2DC
:100FA000C44840680079A042DADC0020EEE770B562
:100FB00004460D46BF480068C07AA04204D0BD4830
:100FC0000068407DA04202D14FF0FF3070BDB948AB
:100FD00040680079A04202DC4FF0FF30F6E7B549E7
:100FE000496808782B4601222146FFF783FEEDE78A
:100FF00038B50446AF4890F82300A04201D1002044
:1010000038BD14B13020009001E000200090A948C4
:10101000807C20B19DF8000040F002000090A548BF
:1010200090F8220020B19DF8000040F08000009070
:10103000A04A1268117D9F4A526810786B460122BF
:10104000FFF70DFF10B14FF0FF30D9E7994880F856
:1010500023400020D4E738B5044604F0700010B1F6
:101060000120009005E014B10020009001E0402034
:101070000090904A1268917C8E4A526810786B46B4
:101080000122FFF7ECFE20B100218A488172481E40
:1010900038BD9DF8000020F0400186480173002013
:1010A000009004F0400020B99DF8000040F00400DA
:1010B000009004F0200020B99DF8000040F00200EC
:1010C000009004F0100020B99DF8000040F00100ED
:1010D000009004F0080020B99DF8000040F03800AE
:1010E0000090744A1268D17C724A526810786B463C
:1010F0000122FFF7B4FE20B100216E488172481E24
:10110000C6E724B1082C02D00020FFF771FF694820
:101110008472002101753220FFF7DDF90020B7E766
:1011200038B504466348807CA04201D1002038BD18
:10113000002C46D05F4A126811795E4A52681078D6
:101140006B460122FFF7D6FD10B14FF0FF30EEE7FE
:101150009DF8000020F020000090564A1268117996
:10116000544A526810786B460122FFF778FE10B19E
:101170004FF0FF30DBE70320FFF7ADF902200090CE
:101180004C4890F8220020B19DF8000040F080000B
:101190000090484890F8230020B19DF8000040F0EE
:1011A00030000090434A1268117D424A526810781C
:1011B0006B460122FFF753FE002851D04FF0FF305D
:1011C000B5E73C4A126811793A4A526810786B4682
:1011D0000122FFF78FFD10B14FF0FF30A7E7354830
:1011E000807A00F0010028B19DF8000040F0200056
:1011F000009004E09DF8000020F0200000902D4AAF
:10120000126811792B4A526810786B460122FFF759
:1012100026FE10B14FF0FF3089E70320FFF75BF99E
:10122000244890F8220010B18020009001E00020B6
:101230000090204890F8230020B19DF8000040F075
:10124000300000901B4A1268117D1A4A52681078CB
:101250006B460122FFF703FE10B14FF0FF3066E747
:1012600014488474002062E708B51248807A10B9E7
:101270004FF0FF3008BD002000900E4A1268D17B6D
:101280000C4A526810786B460122FFF7E8FD10B156
:101290004FF0FF30EEE7074A12685179054A52686D
:1012A00010786B460122FFF7DAFD68B14FF0FF308E
:1012B000E0E7000050000020252335783A20252360
:1012C00035780D0A00000000F84A12681179F74AD3
:1012D000526810786B460122FFF7C1FD10B14FF044
:1012E000FF30C7E7F14890F82400002853D00C20C5
:1012F0000090EE4A12681179EC4A526810786B46F9
:101300000122FFF7ACFD10B14FF0FF30B2E7322001
:10131000FFF7E1F8C0200090E448807A00F0010077
:1013200020B19DF8000040F020000090DF4A1268D4
:101330001179DE4A526810786B460122FFF78FFD63
:1013400010B14FF0FF3095E7D848407C10B1022033
:10135000009001E000200090D44A1268D17BD34A6B
:10136000526810786B460122FFF779FD10B14FF0FB
:10137000FF307FE700200090CC4A12685179CB4AB9
:10138000526810786B460122FFF769FD002855D09E
:101390004FF0FF306EE704200090C44A12681179C4
:1013A000C24A526810786B460122FFF758FD10B10F
:1013B0004FF0FF305EE7BD48807C20B9BB48807AA3
:1013C00000F0010010B94020009001E06020009082
:1013D000B64A12681179B54A526810786B460122F4
:1013E000FFF73DFD10B14FF0FF3043E73220FFF72C
:1013F00072F8AE48407C10B10120009001E000205E
:101400000090AA4A1268D17BA84A526810786B46AD
:101410000122FFF724FD10B14FF0FF302AE7A34A65
:1014200012685179A14A52681078A04B10330122FA
:10143000FFF715FD10B14FF0FF301BE7002019E753
:1014400070B50446002624F00104984890F8240062
:1014500008B1002070BD9548807A10B94FF0FF3078
:10146000F8E79248057C807A204090490874084645
:10147000007CA04202D04FF0FF3600E0002614B9F5
:101480008A48007D18B10120FFF722FD02E000200C
:10149000FFF71EFD3CB1FFF7E7FE20B1834805745E
:1014A0004FF0FF30D6E73046D4E738B504467F48E2
:1014B000807A10B94FF0FF3038BDBC2C02DB012020
:1014C000009015E0622C02DB0220009010E02A2C34
:1014D00002DB032000900BE0142C02DB04200090C0
:1014E00006E00A2C02DB0520009001E006200090B7
:1014F0006E48C07A9DF80010884201D10020DBE7D9
:101500006A4A12689178694A526810786B460122DB
:10151000FFF7A5FC10B14FF0FF30CDE79DF80010AC
:101520006248C1720020C7E738B50446282C02DDA6
:101530004FF0FF3038BDDCB90020FFF759FD002027
:101540008DF8000007208DF80100584A1268917C40
:10155000564A526810786B460222FFF780FC10B1A1
:101560004FF0FF30E6E70021504801750020E1E729
:101570000120FFF73DFD20208DF80000012C06D151
:1015800000208DF801000520FFF78FFF17E0052CE4
:1015900006DC01208DF801000520FFF786FF0EE034
:1015A000142C06DC02208DF801000A20FFF77DFFD5
:1015B00005E003208DF801001420FFF776FF9DF869
:1015C0000100072101EB8010C0B28DF80100374AFD
:1015D0001268917C354A526810786B460222FFF7F8
:1015E0003EFC10B14FF0FF30A4E708212F48817274
:1015F00000210173012101750020FFF721FF002068
:1016000098E738B504462948807A10B94FF0FF3082
:1016100038BD264890F8240010B14FF0FF30F7E7AE
:101620002248007D50B134B1282C04DCE0B2FFF731
:101630007BFF0020ECE70020FFF776FF042C01DAA7
:10164000042404E0B4F57A7F01DD4FF47A744FF49A
:101650007A7090FBF4F0401EC0B20090134A1268FA
:101660005178124A526810786B460122FFF7F7FB57
:1016700010B14FF0FF30CBE79DF80000401C4FF455
:101680007A7191FBF0F081B20848C1810146C989A5
:101690004810FFF70AFF0020BAE738B504460348B0
:1016A000807A28B94FF0FF3038BD0000500000208C
:1016B000022C06D0042C07D0082C08D0102C0CD1FA
:1016C00008E0002000900BE00820009008E01020C7
:1016D000009005E01820009002E04FF0FF30E3E7B3
:1016E00000BFF948407A9DF80010B0EBE10F01D13E
:1016F0000020D9E7F44A1268D179F34A5268107889
:101700006B460122FFF7ABFB10B14FF0FF30CBE788
:101710009DF80000C110EC4841720020C4E738B5C4
:101720000446E948807A10B94FF0FF3038BDFA2CF2
:1017300009D0B4F5FA7F09D0B4F57A7F09D0B4F5B1
:10174000FA6F0CD108E0002000900BE00820009018
:1017500008E01020009005E01820009002E04FF013
:10176000FF30E3E700BFD848007A9DF80010B0EBE7
:10177000E10F01D10020D9E7D34A12689179D24A0A
:10178000526810786B460122FFF769FB10B14FF0E9
:10179000FF30CBE79DF80000C010CB490872002055
:1017A000C4E71CB580208DF80000C74A1268917C00
:1017B000C54A526810786B460122FFF750FB10B102
:1017C0004FF0FF301CBD6420FEF785FE00208DF831
:1017D0000000BD4A1268917CBB4A526810786B4683
:1017E0000122FFF73CFB10B14FF0FF30EAE7B64AA9
:1017F0001268917DB44A526810786B460622FFF752
:1018000079FA10B14FF0FF30DCE79DF80500C00712
:10181000400F9DF8031001F0010140EA41009DF8DE
:10182000011001F0010140EA010494B1012C03D13F
:101830000121A548C17431E0022C03D10021A24846
:10184000C1742BE02146A1A007F086FB4FF0FF30CA
:10185000B8E79D4A1268D1789B4A526810786B4667
:101860000122FFF747FA10B14FF0FF30AAE79DF8C9
:10187000000000F00F042CB99E4807F06DFB4FF0FC
:10188000FF309FE7042C06D19BA007F065FB0121E8
:101890008D48C17402E000218B48C174FF218A4841
:1018A0008172FF2088490872FF2187484172C17206
:1018B0004FF6FF71C181FF21017481740121017311
:1018C00080F82210002180F8231041750175163030
:1018D000016041608160163880F8241080F825107E
:1018E000C1844FF4FA60FFF71AFF10B14FF0FF30D8
:1018F00068E70220FFF7D1FE10B14FF0FF3061E73B
:101900002A20FFF7D2FD10B14FF0FF305AE7322006
:10191000FFF777FE10B14FF0FF3053E70020FFF7DD
:101920008FFD10B14FF0FF304CE70020FFF7F8FBC0
:1019300010B14FF0FF3045E70020FFF78CFB00208F
:1019400040E770477CB504460D465F48807A00F05A
:10195000700010B94FF0FF307CBD5B4A1268117BFC
:10196000594A526810786B460622FFF7C3F910B146
:101970004FF0FF30F0E79DF801009DF8001040EABD
:10198000012000B220809DF803009DF8021040EA7B
:10199000012000B260809DF805009DF8041040EA27
:1019A000012000B2A08015B12846FFF7CAFF002031
:1019B000D2E77CB504460D464348807A00F0080023
:1019C00010B94FF0FF307CBD3F4A1268517B3E4A50
:1019D000526810786B460622FFF78CF910B14FF071
:1019E000FF30F0E79DF801009DF8001040EA01206B
:1019F00000B220809DF803009DF8021040EA01200B
:101A000000B260809DF805009DF8041040EA0120B6
:101A100000B2A08015B12846FFF793FF0020D2E75F
:101A20002DE9FE4F05460C462748807A18B94FF03D
:101A3000FF30BDE8FE8F244A1268917B224A52682B
:101A4000107802AB0222FFF755F910B14FF0FF30CA
:101A5000EFE79DF809009DF8081040EA012006B262
:101A600014B12046FFF76DFF17494968C88806F092
:101A7000AEFD154901904968B1F9080006F09EFDD8
:101A80008346304606F09AFD5946009006F098FBD2
:101A90008246019906F0CCFB81461F4906F03EFBC9
:101AA00080464FF08F4106F091FB074606F0B2FDED
:101AB00028600020BDE710B588B004461CB94FF07F
:101AC000FF3008B010BD29E050000020556E73753E
:101AD00070706F7274656420736F6674776172657D
:101AE0002070726F64756374207265762025642E91
:101AF0000A00000080B6000848616C662073656EBD
:101B00007369746976697479207061727420666F84
:101B1000756E642E0A00000000000C42206830B987
:101B2000606820B9A06810B9002008B010BDFA495B
:101B30004968087806AB03221146FFF7DBF810B1BD
:101B40004FF0FF30F1E79DF81800082101EB20105D
:101B500000F00F00ADF800009DF8190001EB201017
:101B600000F00F00ADF802009DF81A0001EB201004
:101B700000F00F00ADF8040020684100BDF900003E
:101B8000403091FBF0F000B2ADF810006068410009
:101B9000BDF90200403091FBF0F000B2ADF8120048
:101BA000A0684100BDF90400403091FBF0F000B2A4
:101BB000ADF81400D8494968087806AB06221146EA
:101BC000FFF798F810B14FF0FF30AEE79DF819001D
:101BD0009DF8181040EA012000B2ADF808009DF809
:101BE0001B009DF81A1040EA012000B2ADF80A006F
:101BF0009DF81D009DF81C1040EA012000B2ADF8D0
:101C00000C00BDF81000BDF80810084400B2ADF893
:101C10001000BDF81200BDF80A10084400B2ADF87B
:101C20001200BDF81400BDF80C10084400B2ADF865
:101C30001400BDF81000000A8DF81800BDF810005F
:101C4000C0B28DF81900BDF81200000A8DF81A0014
:101C5000BDF81200C0B28DF81B00BDF81400000AD8
:101C60008DF81C00BDF81400C0B28DF81D00AA4903
:101C70004968087806AB06221146FFF7F0F810B164
:101C80004FF0FF3051E700204FE70146A248007AAD
:101C900030B1012807D0022809D003280FD10AE06B
:101CA000FA2008800EE04FF4FA7008800AE04FF442
:101CB0007A70088006E04FF4FA60088002E00020A5
:101CC000088000BF00BF0020704701469248407A5C
:101CD00030B1012807D0022808D003280CD108E031
:101CE000022008700BE00420087008E0082008704B
:101CF00005E01020087002E04FF0FF30704700BF91
:101D00008548C07C18B108784006000E0870002095
:101D1000F4E701468048C07A082817D2DFE800F0CF
:101D20001704070A0D101318BC20088013E0622066
:101D3000088010E02A2008800DE0142008800AE0C6
:101D40000A20088007E00520088004E000BF00BFEB
:101D50000020088000BF00BF0020704701466E4889
:101D600090F8240010B14FF0FF3070476A48C089E6
:101D700008800020F9E7014600200880401E7047D7
:101D800001464FF0FF30704701466348007A30B19A
:101D9000012807D0022808D003280CD108E05F48AA
:101DA00008600BE05E48086008E05E48086005E0F7
:101DB0005D48086002E04FF0FF30704700BF002030
:101DC000FBE701465448407A30B1012808D0022888
:101DD0000AD0032810D10BE04FF4804008800EE0B9
:101DE00041F69C7008800AE04FF48050088006E0BD
:101DF0004FF40060088002E04FF0FF30704700BFF2
:101E00004548C07C10B10888401008800020F5E7E4
:101E100001464148007C08700020704701463E485A
:101E2000807A10B10120087001E0002008700020C5
:101E3000704738B504463848807A10B94FF0FF3003
:101E400038BD354A1268117C334A526810786B46A7
:101E50000222FEF74FFF10B14FF0FF30F0E79DF880
:101E600001009DF8001040EA012000B2208000200F
:101E7000E6E72DE9FE4F0746884692461D46DDF807
:101E800030B000260024244890F8240010B1601ED1
:101E9000BDE8FE8F002028701F48807A10B94FF0EF
:101EA000FF30F5E71C48007C10B94FF0FF30EFE73A
:101EB0001948007C00F0400008B1B01CC6B21648BA
:101EC000007C00F0200008B1B01CC6B21248007CB3
:101ED00000F0100008B1B01CC6B20F48007C00F042
:101EE000080008B1B01DC6B20B4A1268917A0A4ABE
:101EF000526810786B460222FEF7FCFE10B14FF0DC
:101F0000FF30C5E79DF801009DF8001040EA012967
:101F1000B1450BDA0020BBE750000020000003436E
:101F2000000083423333034233338341FC4840682B
:101F30004088B9EB600F17DDF94A1268517CF84A06
:101F4000526810786B460122FEF7D4FE10B14FF0B4
:101F5000FF309DE79DF8000000F0100020B1FFF772
:101F600083F96FF0010093E75046FFF7EAFCEC4A73
:101F70001268D17AEA4A526810786B463246FEF708
:101F8000B9FE10B14FF0FF3082E799FBF6F0401E2A
:101F90008BF8000000202870B4422AD0E048007C72
:101FA00000F0080028B3601C1DF800001DF80410A4
:101FB00040EA012000B2A8F80000E01C1DF8001063
:101FC000A01C1DF8000041EA002000B2A8F80200A1
:101FD000601D1DF80010201D1DF8000041EA0020C2
:101FE00000B2A8F80400287840F008002870A01D6E
:101FF00084B2B44213D0CA48007C00F0400070B1F3
:10200000601C1DF800001DF8041040EA012000B219
:102010003880287840F040002870A01C84B2B44278
:1020200013D0BF48007C00F0200070B1601C1DF888
:1020300000001DF8041040EA012000B278802878E2
:1020400040F020002870A01C84B2B44213D0B448E1
:10205000007C00F0100070B1601C1DF800001DF83D
:10206000041040EA012000B2B880287840F0100047
:102070002870A01C84B200200AE7F8B504460F4679
:102080001646A74890F8240010B94FF0FF30F8BD6D
:10209000A348807A10B94FF0FF30F8E7A04A1268E1
:1020A000917A9F4A526810786B460222FEF722FE10
:1020B00010B14FF0FF30EAE79DF801009DF80010E5
:1020C00040EA0125A54203DA00203070401EDEE719
:1020D000934840684088B5EB600F17DD904A12685E
:1020E000517C8F4A526810786B460122FEF702FE3F
:1020F00010B14FF0FF30CAE79DF8000000F010006B
:1021000020B1FFF7B1F86FF00100C0E7E2B2844BF5
:102110001B68D97A824B5B6818783B46FEF7EAFD6C
:1021200010B14FF0FF30B2E795FBF4F0401E307075
:102130000020ACE701467A4880F822100020704762
:102140007CB5054676494968087801AB04220D2123
:10215000FEF7D0FD08B107207CBD9DF80700C0F355
:1021600001109DF8041001F0E00140EAE1008DF853
:1021700000009DF80700C0F381009DF8051001F0F4
:10218000E00140EAE1008DF801009DF8070000F051
:1021900003009DF8061001F0E00140EAE1008DF82F
:1021A000020000241CE01DF8040018B9002045F8C6
:1021B000240013E05B4845F8240006E055F82400AD
:1021C000594906F003F845F824001DF80400401EA4
:1021D000C0B20DF804000028F0D100BF601CC4B2EA
:1021E000032CE0DB0020B7E72DE9FE4F06460F4643
:1021F00000256846FFF7A4FF002442E056F82400BB
:1022000057F82410A0EB010ABAF1000F01DB514688
:1022100001E0CAF10001084606F0D0F983464FF00C
:102220008F4106F005F880465DF82400002106F095
:102230009DFA16D05DF82410404605F0F9FF82465D
:102240004FF07E5105F0BCFF814629F0004A374827
:10225000416A504606F094FA12D20120A04005438C
:102260000EE03248C169404606F080FA05D32F4897
:10227000016A404606F084FA02D20120A0400543DC
:10228000641C032CBADB2846BDE8FE8F2DE9FC5FF9
:1022900006460F46002522494968087801AB03220B
:1022A0000D21FEF727FD10B10720BDE8FC9F9DF82A
:1022B000040000F01F008DF804009DF8050000F0F8
:1022C0001F008DF805009DF8060000F01F008DF836
:1022D0000600002462E056F8240057F82410A0EB12
:1022E000010BBBF1000F01DB594601E0CBF100010E
:1022F000084606F063F94FF08F41009005F098FF13
:10230000814601A8005DC0B30849086806F05FF97E
:1023100083465946064805F08BFF80460FE00000D3
:10232000500000207B14AE3E1D5A843FE49F0008FD
:1023300000B04C45FE49404605F048FF804601A8E4
:10234000005D401EC0B201A908550028F2D14146E7
:10235000484605F06DFF83464FF07E5105F030FF93
:1023600082462AF0004BF3488169584606F008FA85
:1023700013D20120A04005430FE0FFE7ED480169BB
:10238000484606F0F3F905D3EA484169484606F0A5
:10239000F7F902D20120A0400543641C032C9ADB0C
:1023A000284682E72DE9F04F87B005460C46914656
:1023B00001208DF8100000208DF81100DE4A12680F
:1023C000917CDD4A5268107804AB0222FEF747FD8B
:1023D00020B14FF0FF3007B0BDE8F08FC820FEF706
:1023E0007AF800208DF81000D34A1268D17BD24AC7
:1023F0005268107804AB0122FEF731FD10B14FF0A6
:10240000FF30E8E7CC4A12685179CB4A526810781D
:1024100004AB0122FEF723FD10B14FF0FF30DAE7E5
:10242000C54A1268917CC44A5268107804AB0122F4
:10243000FEF715FD10B14FF0FF30CCE7BE4A126831
:10244000D17DBD4A5268107804AB0122FEF707FD2A
:1024500010B14FF0FF30BEE7B74A12681179B64AA3
:102460005268107804AB0122FEF7F9FC10B14FF06E
:10247000FF30B0E70C208DF81000AF4A12681179D8
:10248000AD4A5268107804AB0122FEF7E8FC10B1A7
:102490004FF0FF309FE70F20FEF71DF8A648806A37
:1024A000407A8DF81000A44A12689178A24A5268C6
:1024B000107804AB0122FEF7D2FC10B14FF0FF30D0
:1024C00089E79D48806A007A8DF810009A4A126860
:1024D0005178994A5268107804AB0122FEF7BFFC8C
:1024E00010B14FF0FF3076E7B9F1000F07D09248F6
:1024F000806A807A40F0E0008DF8100004E08E4899
:10250000806A807A8DF810008B4A126891798A4A25
:102510005268107804AB0122FEF7A1FC10B14FF015
:10252000FF3058E7B9F1000F07D08348806AC07ABE
:1025300040F0E0008DF8100003E07E48C07A8DF88E
:1025400010007D4A1268D1797B4A5268107804AB3A
:102550000122FEF784FC10B14FF0FF303BE7B9F1E8
:10256000000F02D0C820FDF7B6FF40208DF8100004
:10257000714A12681179704A5268107804AB0122CE
:10258000FEF76DFC10B14FF0FF3024E778208DF896
:102590001000694A12685179674A5268107804AB92
:1025A0000122FEF75CFC10B14FF0FF3013E76149E8
:1025B0008889FDF790FF00208DF810005E4A1268B0
:1025C00051795D4A5268107804AB0122FEF747FC4E
:1025D00010B14FF0FF30FEE6574A1268917A564A22
:1025E0005268107804AB0222FEF784FB10B14FF062
:1025F000FF30F0E69DF811009DF8101040EA012B25
:102600000C209BFBF0F0C6B20020A8606860286038
:10261000A06060602060824665E0474A1268D17A17
:10262000454A5268107804AB0C22FEF763FB10B1E8
:102630004FF0FF30CFE69DF811009DF8101040EAF2
:10264000012000B2ADF808009DF813009DF81210AB
:1026500040EA012000B2ADF80A009DF815009DF88F
:10266000141040EA012000B2ADF80C00BDF90810CA
:10267000206808442060BDF90A1060680844606062
:10268000BDF90C10A0680844A0609DF817009DF8E3
:10269000161040EA012000B2ADF800009DF81900C4
:1026A0009DF8181040EA012000B2ADF802009DF834
:1026B0001B009DF81A1040EA012000B2ADF804009A
:1026C000BDF90010286808442860BDF90210686848
:1026D00008446860BDF90410A8680844A8600AF1BD
:1026E000010000F0FF0AB24597DB1248D0F800C0A5
:1026F0002868C117090441EA104107046246002313
:10270000384605F0B1F932460023CDE9020105F063
:10271000ABF928600748D0F800C06868C117090401
:1027200041EA1041070462460023384606E00000F3
:1027300054E3853FE49F00085000002005F094F921
:1027400032460023CDE9020105F08EF96860FE48AB
:10275000D0F800C0A868C117090441EA1041070475
:1027600062460023384605F07FF932460023CDE962
:10277000020105F079F9A860F348D0F804C0216897
:10278000C817000440EA11480F0462460023384687
:10279000414605F069F932460023CDE9020105F012
:1027A00063F92060E848D0F804C06068C1170904E4
:1027B00041EA1041070462460023384605F054F907
:1027C00032460023CDE9020105F04EF96060DE4893
:1027D000D0F804C0A068C117090441EA10410704F9
:1027E00062460023384605F03FF932460023CDE922
:1027F000020105F039F9A060A068002804DDA06896
:10280000A0F58030A06003E0A06800F58030A060F3
:102810000020E0E538B50446CC4890F82400A042FA
:1028200001D1002038BD24B3C84890F8250010B964
:102830004FF0FF30F6E70020FEF74AFB0020FEF7DE
:102840006FFCC249C88CFEF7DCFE00200090BF4937
:10285000496808786B4601222321FEF700FB01211D
:10286000BA4880F824100120FEF732FBFEF7FCFC8A
:1028700013E00020FEF72CFBB448007C0090B34925
:10288000496808786B4601222321FEF7E8FA002107
:10289000AE4880F82410FEF7E7FC0020C2E72DE9DF
:1028A000F04F8DB083460F4602200C90A74890F859
:1028B000240020B10020FFF7ADFF012600E0002634
:1028C00003A8FFF7E2F905A8FFF7FFF901A8FFF752
:1028D00020FA02A8FFF742FA9C4890F80AA004A840
:1028E000FFF796FA002407E0002239465846FFF722
:1028F00059FD00B902E0641C022CF5DB00BF022C7C
:1029000001D1002528E0002407E0012206A909A83A
:10291000FFF748FD00B902E0641C022CF5DB00BFA4
:10292000022C01D1002517E006A93846FFF75CFC10
:1029300000F0FF0809A95846FFF7A8FC00F0FF09BE
:102940000025B9F1000F01D145F00105B8F1000FE4
:1029500001D145F0020500BFFF207C490872FF212C
:102960007A484172C1724FF6FF71C181FF218172B5
:10297000017401210173BDF80C00FEF7D0FE9DF833
:102980001400FEF78AFEBDF80400FEF78EFDBDF8C8
:102990000800FEF736FE5046FEF75DFB9DF810007E
:1029A000FEF74EFD16B10120FFF734FF28460DB0AB
:1029B000BDE8F08FF8B504460D46164616B94FF03F
:1029C000FF30F8BD6148807A10B94FF0FF30F8E76A
:1029D00020128DF80000E0B28DF801009DF8010092
:1029E00028445A4949684989884202DD4FF0FF303E
:1029F000E7E7564A1268117E544A526810786B46CF
:102A00000222FEF72CFA10B14FF0FF30D9E7EAB2FC
:102A10004E4B1B68597D4D4B5B6818783346FEF76B
:102A20001EFA10B14FF0FF30CBE70020C9E7F8B530
:102A300004460D46164616B94FF0FF30F8BD434820
:102A4000807A10B94FF0FF30F8E720128DF80000BF
:102A5000E0B28DF801009DF8010028443B49496827
:102A60004989884202DD4FF0FF30E7E7374A1268B4
:102A7000117E364A526810786B460222FEF7EFF953
:102A800010B14FF0FF30D9E7EAB2304B1B68597DE7
:102A90002E4B5B6818783346FEF72CF910B14FF0D7
:102AA000FF30CBE70020C9E72DE9F04385B00546AC
:102AB0000E4690469946254890F8250020B14FF0E3
:102AC000FF3005B0BDE8F08316B94FF0FF30F8E7EE
:102AD000002423E0281B102801DD102000E0281B23
:102AE00087B2321939462046FFF764FF10B14FF024
:102AF000FF30E6E701AA39462046FFF798FF10B1FC
:102B00004FF0FF30DDE730193A4601A905F016F81D
:102B100010B16FF00100D4E7E01984B2AC42D9DB08
:102B20004FEA28208DF8000008F0FF008DF8010022
:102B3000064A1268917E054A526810786B46022256
:102B4000FEF78DF938B103E0E49F00085000002043
:102B50004FF0FF30B5E70121FE4880F82510A0F8BE
:102B600026900020ADE70146FA4890F8240008704E
:102B7000002070474FF0FF30704702464FF0FF30A3
:102B8000704701464FF0FF307047F8B505460F46D5
:102B90001446002C70D0B5F5FF5F01DDFF2605E07F
:102BA000202D01DA012601E0C5F3471607B90127F8
:102BB000282C02DD4FF0FF30F8BDE648407D28BBF1
:102BC000E44890F8240038B10020FFF723FE0121EB
:102BD000E04880F8201003E00021DE4880F8201053
:102BE000DC481630FFF751F8DA481830FFF76DF877
:102BF000D8481A30FFF78DF8D6481C30FFF7AEF8EA
:102C0000D448817A81771F30FFF702F90020FEF760
:102C10005FF90020FEF788FC00208DF80000CD4A07
:102C200012689178CB4A526810786B460122FEF701
:102C300016F910B14FF0FF30BEE740208DF80000CC
:102C4000C44A1268D17BC34A526810786B4601228D
:102C5000FEF705F900B165E08DF800608DF80170B0
:102C6000BC4A1268117ABB4A526810786B4602223D
:102C7000FEF7F5F808B155E047E00520FDF72BFC1D
:102C8000B448407A072101EBC000C0B28DF80000C3
:102C9000B04A1268D179AF4A526810786B46012267
:102CA000FEF7DDF800B13DE020208DF80000012C9A
:102CB00003D100208DF801000EE0052C03DC01207B
:102CC0008DF8010008E0142C03DC02208DF80100CF
:102CD00002E003208DF801009DF80100072101EBBF
:102CE0008010C0B28DF801009A4A1268917C994A0E
:102CF000526810786B460222FEF7B1F800B111E07D
:102D0000012194484175002056E7924A163200216D
:102D100003E0505C00B105E0491C0C29F9D34FF0E9
:102D2000FF3049E7FF208B490872FF218948417233
:102D3000C1724FF6FF71C181FF21817201740121BF
:102D400001730146887FFEF786F98249C88AFEF73B
:102D5000E6FC8049087EFEF7A0FC7E49488BFEF722
:102D6000A4FB7C49888BFEF74CFC7A49C87FFEF7B0
:102D700067FB784890F8200010B10120FFF74AFD6A
:102D8000002174484175002016E770B588B002A98B
:102D900005A8FFF784FD0446072C3ED101A8FEF7E5
:102DA000F3FF059805F00AFC0646019905F00EFAB6
:102DB000054605F02FFC0590069805F0FFFB06463A
:102DC000019905F003FA054605F024FC06900798E2
:102DD00005F0F4FB0646019905F0F8F9054605F003
:102DE00019FC079005A800F052FA6846FEF7E9FFC3
:102DF000BDF80010029848430290BDF800100398F7
:102E000048430390BDF8001004984843049002A87A
:102E100000F0D0FA002008B070BD0120FBE70146A9
:102E200091F90020002A01DD00201EE091F9002028
:102E3000002A01DA042018E091F90120002A01DDBE
:102E4000012012E091F90120002A01DA05200CE0AE
:102E500091F90220002A01DD022006E091F902200A
:102E6000002A01DA062000E00720704710B504466A
:102E70002046FFF7D4FF0346E01CFFF7D0FF43EAEC
:102E8000C00083B2A01DFFF7CAFF43EA801083B2DF
:102E9000184610BD70B50024FDF749FDFEF781FC12
:102EA00000283DD17820FEF7D6F8C4B20CB101203D
:102EB00070BD7820FEF7C4FAC4B20CB10220F7E767
:102EC0006420FEF79EFBC4B20CB10320F0E700F0D3
:102ED00043F9C4B20CB10420EAE71F48FFF7C6FF6C
:102EE000054600F043F9C4B20CB10520E0E740F21A
:102EF000731000F07CFDC4B20CB10620D8E764204A
:102F000000F0EEFAC4B20CB10720D1E7FFF73DFFA5
:102F100004460120FFF77EFCC4B21CB10920C7E7BC
:102F20000A20C5E70020C3E72DE9F04F99B0044619
:102F30000D4616464FF07E574FF000084FF000093F
:102F40004FF0000A12A813A918AB0EAACDE9001081
:102F500014A903E0500000207C00002016A800F017
:102F6000A5FE18B1012019B0BDE8F08FBDF84C00E6
:102F700000F4807000287CD00E9805F01FFB83467B
:102F80004FF09D4105F054F907460F9805F016FBE8
:102F900083464FF09D4105F04BF98046109805F0AF
:102FA0000DFB83464FF09D4105F042F98146119893
:102FB00005F004FB83464FF09D4105F039F9824648
:102FC00039464FF0804005F001F94946059005F07B
:102FD000FDF8414607904FF0404005F0F7F85146A4
:102FE000059005F0F3F80690079905F097F88346E9
:102FF00005F075FBCDE9080106F0B2FC4FF0663232
:10300000544BCDE90A0105F0F8F9CDE90C0105F0C2
:1030100091FB206049464FF0804005F0D7F84946C3
:10302000029005F0D3F8414604904FF0404005F07F
:10303000CDF84146029005F0C9F80390049905F0D7
:10304000BFF883464FF07E5105F068F8059005F013
:1030500046FBCDE9080139464FF0804005F0B6F84F
:103060004146039005F0B2F8494604904FF0804085
:1030700000E06AE005F0AAF85146039005F0A6F8D2
:103080008346049905F04AF8059005F028FBCDE940
:103090000601DDE9082306F0ABFE4FF066322D4B4A
:1030A000CDE90A0105F0A9F9CDE90C0105F042FBD3
:1030B00028605146504605F089F849460490484634
:1030C00005F084F841460390404605F07FF8394604
:1030D0000190384605F07AF80090019905F01EF845
:1030E0000290039905F06CF88346049905F068F89E
:1030F000059005F0F4FACDE908015146384605F08F
:1031000065F849460490404605F060F8039004993C
:1031100005F004F84FF08041059005F057F883461C
:1031200005F0DDFACDE90601DDE9082306F060FED1
:103130004FF06632074BCDE90A0105F05EF9CDE9A3
:103140000C0105F0F7FA306001E002200BE70020E7
:1031500009E7000066A64C4010B5C8234FF4806212
:10316000F74940F6F630FFF79FFC10BD10B586B06A
:103170000446F4A000680390F3A000680290F3A056
:1031800000680190F2A00068009004F0030003A919
:10319000085C8DF8140003A8C4F3C101405C8DF8ED
:1031A000150003A8C4F38111405C8DF8160004F0EB
:1031B000030002A9085C8DF8100002A8C4F3C10145
:1031C000405C8DF8110002A8C4F38111405C8DF8B9
:1031D000120005AA032140F22640FFF7EBFB18B1CD
:1031E0004FF0FF3006B010BD04AA032140F22A4080
:1031F000FFF7E0FB10B14FF0FF30F3E701980590C7
:103200000098049004F0040058B19DF8140040F0B8
:1032100001008DF814009DF8100040F001008DF8B9
:10322000100004F0200058B19DF8150040F0010096
:103230008DF815009DF8110040F001008DF8110087
:1032400004F4807058B19DF8160040F001008DF82C
:1032500016009DF8120040F001008DF8120005AA3A
:1032600003214FF48860FFF7A5FB10B14FF0FF304A
:10327000B8E704AA032140F23140FFF79BFB10B1ED
:103280004FF0FF30AEE7B34804810020AAE71FB536
:103290000446B048007A00F0030054F82000019082
:1032A000AC48007A00F0040010B10198404201904F
:1032B000A848007AC0F3C10054F820000290A54845
:1032C000007A00F0200010B1029840420290A1481C
:1032D000007AC0F3811054F8200003909D480089C3
:1032E00000F4807010B10398404203909A4901980D
:1032F00080FB0101800F40EA81000190964902980D
:1033000080FB0110820042EA91700290924903987A
:1033100080FB0110820042EA917003900198000E38
:103320008DF800000198000C8DF801000198000A4A
:103330008DF802000198C0B28DF803006A4604219E
:103340004FF47470FFF736FB18B14FF0FF3004B044
:1033500010BD0298000E8DF800000298000C8DF848
:1033600001000298000A8DF802000298C0B28DF8A0
:1033700003006A4604214FF47570FFF71BFB10B180
:103380004FF0FF30E3E70398000E8DF8000003983C
:10339000000C8DF801000398000A8DF802000398D4
:1033A000C0B28DF803006A4604214FF47670FFF72F
:1033B00001FBCCE770B588B0064601A8FEF701FD19
:1033C000BDF804000021C90341EA5045C403614827
:1033D000007A00F0030056F8200005905D48007A5E
:1033E00000F0040010B10598404205905948007A59
:1033F000C0F3C10056F8200006905648007A00F04D
:10340000200010B10698404206905248007AC0F35E
:10341000811056F8200007904E48008900F4807013
:1034200010B10798404207900598C117A0FB0423EC
:1034300001FB043100FB0510810041EA9270059008
:103440000698C117A0FB042301FB043100FB051003
:10345000810041EA927006900798C117A0FB0423EF
:1034600001FB043100FB0510810041EA92700790D6
:103470000598000E8DF808000598000C8DF80900DD
:103480000598000A8DF80A000598C0B28DF80B0067
:103490000698000E8DF80C000698000C8DF80D00B3
:1034A0000698000A8DF80E000698C0B28DF80F003D
:1034B0000798000E8DF810000798000C8DF8110089
:1034C0000798000A8DF812000798C0B28DF8130013
:1034D00002AA0C214FF42570FFF76CFA08B070BDFA
:1034E00030B585B004461DA207CA02AB07C3C82C7D
:1034F00003DD4FF0FF3005B030BDC82090FBF4F085
:10350000401E85B2280A8DF80000E8B28DF801004F
:103510006A46022140F21620FFF74CFA10B14FF034
:10352000FF30E8E702AA0C2140F6C120FFF742FA7B
:1035300010B14FF0FF30DEE7064884810020DAE763
:103540000CA000084CCD6C000CC92C00365676003F
:1035500026466600E404002009E3CA02FEF2ABC47A
:10356000AAF1DFDFBBAFDFDF0146FC4880890880BE
:10357000002070472DE9FC4706460F4606F007007D
:1035800010B1B7F5C86F03DD4FF0FF30BDE8FC8721
:10359000384605F01CF88146F14904F049FE8046A2
:1035A0006846FEF792FB9DF80000022806D004282A
:1035B00016D0082826D0102848D135E04FF08D418C
:1035C000404604F003FE814605F03DF884B2E5492B
:1035D000404604F0FBFD814605F035F885B238E041
:1035E0004FF08C41404604F0F1FD814605F02BF888
:1035F00084B2DD49404604F0E9FD814605F023F838
:1036000085B226E04FF08B41404604F0DFFD814655
:1036100005F019F884B2D549404604F0D7FD81463B
:1036200005F011F885B214E04FF08A41404604F0ED
:10363000CDFD814605F007F884B2CD49404604F03F
:10364000C5FD814604F0FFFF85B202E04FF0FF3078
:103650009CE700BF20128DF80400E0B28DF8050051
:1036600028128DF80600E8B28DF8070006F0010078
:10367000A0B101AA02214FF4EA70FFF79BF910B143
:103680004FF0FF3082E70DF1060202214FF49270F5
:10369000FFF790F910B14FF0FF3077E706F0020026
:1036A000A0B101AA02214FF4EC70FFF783F910B129
:1036B0004FF0FF306AE70DF1060202214FF49470DB
:1036C000FFF778F910B14FF0FF305FE706F0040024
:1036D000A0B101AA02214FF4EE70FFF76BF910B10F
:1036E0004FF0FF3052E70DF1060202214FF49670C1
:1036F000FFF760F910B14FF0FF3047E7002045E7D2
:1037000038B504460020009004F0010020B19DF877
:10371000000040F03000009004F0020020B19DF85D
:10372000000040F00C00009004F0040020B19DF86F
:10373000000040F0030000906A4601214FF4A4709D
:10374000FFF738F938BD38B50446012C01DA0124F9
:1037500002E0042C00DD0424601EC0B200906A4622
:10376000012140F24F10FFF725F938BD38B5044666
:10377000052094FBF0F085B228128DF80000E8B225
:103780008DF801006A4602214FF4EF70FFF712F93D
:1037900038BD38B50446052094FBF0F085B22812F8
:1037A0008DF80000E8B28DF801006A4602214FF45E
:1037B000ED70FFF7FFF838BDF8B505460E464FF43B
:1037C0007A7095FBF0F000FB06F4200E8DF80000F7
:1037D000200C8DF80100200A8DF80200E0B28DF86F
:1037E00003006A4604214FF4AE70FFF7E3F8F8BD1A
:1037F00038B50446052094FBF0F084B220128DF811
:103800000000E0B28DF801006A4602214FF4AD706D
:10381000FFF7D0F838BD38B50446052094FBF0F02A
:1038200084B220128DF80000E0B28DF801006A46E3
:1038300002214FF4AC70FFF7BDF838BD38B504462F
:1038400014B94FF0FF3038BD6A4604214FF4587068
:10385000FFF7EDF810B14FF0FF30F4E79DF80000EE
:1038600000069DF8011040EA01409DF8021040EA70
:1038700001209DF80310084320600020E3E738B5DD
:103880000446200E8DF80000200C8DF80100200A5F
:103890008DF80200E0B28DF803006A4604214FF46F
:1038A0005870FFF787F838BD38B5044614B94FF0A3
:1038B000FF3038BD6A4604214FF47170FFF7B7F846
:1038C00010B14FF0FF30F4E79DF8000000069DF8BE
:1038D000011040EA01409DF8021040EA01209DF8E5
:1038E0000310084300EB8000800020600020E0E728
:1038F00038B504461420B4FBF0F4200E8DF8000017
:10390000200C8DF80100200A8DF80200E0B28DF83D
:1039100003006A4604214FF47170FFF74BF838BD7D
:1039200038B5044664B120208DF8000028208DF8B9
:10393000010030208DF8020038208DF8030004E0EB
:10394000A3220421684604F0D2F86A46042140F616
:103950009E20FFF72FF8FDF787FC38BDE404002018
:1039600000004843000040460000C04500004045BC
:103970000000C04438B5044664B1C0208DF8000092
:10398000C2208DF80100C4208DF80200C6208DF8F9
:10399000030004E08B220421684604F0A8F86A467C
:1039A000042140F69820FFF705F8FDF75DFC38BDCF
:1039B0003EB504466CB1FDA1D1E900208968CDE98E
:1039C000002002916A4609214FF49760FEF7F2FF4A
:1039D0003EBDF9A2D2E900109268CDE90102009142
:1039E0006A4609214FF49760FEF7E4FFF0E73EB521
:1039F000044602208DF80000CA208DF80100E32063
:103A00008DF8020009208DF803006A460421682021
:103A1000FEF7D0FFA3208DF8000004F0400048B16D
:103A2000C0208DF80100C8208DF80200C2208DF85A
:103A3000030006E0A3208DF801008DF802008DF848
:103A4000030004F4C07048B1C4208DF80400CC20F9
:103A50008DF80500C6208DF8060006E0A3208DF83D
:103A600004008DF805008DF80600A3208DF80700EE
:103A70008DF808008DF809006A460A2140F6A72053
:103A8000FEF798FF04F0030018B120208DF8000025
:103A900002E0D8208DF800006A46012140F6B620E9
:103AA000FEF788FF04F0200018B10120FFF780FF27
:103AB00002E00020FFF77CFF04F4C07008B304F4B8
:103AC000807060B1B2208DF800008B208DF801006D
:103AD000B6208DF802009B208DF803000BE0B0208B
:103AE0008DF8000080208DF80100B4208DF80200D0
:103AF00090208DF803006A46042140F6A220FEF7CC
:103B000059FF04F0010020B3F8208DF800006A4648
:103B100001214FF40B60FEF74DFFFA210720FFF75C
:103B200029FD0720FFF7ECFD0120FFF70CFE6420C4
:103B3000FFF71CFE4FF4FA70FFF72BFEC821A148D7
:103B4000FFF73AFE2820FFF753FE0A20FFF763FE37
:103B500008E0D8208DF800006A4601214FF40B6080
:103B6000FEF728FF04F0020018B1D9208DF80000FC
:103B700002E0D8208DF800006A46012140F23D7035
:103B8000FEF718FF04F0040018B10120FFF7F2FE61
:103B900002E00020FFF7EEFE04F0100018B1012053
:103BA000FFF7BEFE02E00020FFF7BAFE44F0080077
:103BB00085494881FDF758FB00208349887304F04C
:103BC000400018B10846807B801D887304F4C070E3
:103BD00020B17D48807B801D7B49887304F01400F0
:103BE00020B17948807B10307749887304F0030056
:103BF00020B17548807B001D7349887300203EBD4D
:103C00000146714840890880002070472DE9F04145
:103C10000446E07800F0C006E07800F03F056078E8
:103C200000F0010098B1EF102846E91705EB51713B
:103C3000C910A5EBC101491C01F0FF0862480068EA
:103C400020B16148414602683846904700BF60781D
:103C500000F0080030B15C48406818B1B0115A4A11
:103C6000516888470020BDE8F08110B586B0044651
:103C700056A207CA03AB07C357A207CA8DE80700BD
:103C8000012C09D0022C0ED103AA0B2140F6822070
:103C9000FEF790FE06B010BD6A460B2140F682206A
:103CA000FEF788FEF6E74FF0FF30F3E72DE9F04F1F
:103CB0008DB00746884615469946DDE9166B002407
:103CC000002030804049887B5A4605A9FEF7D5F987
:103CD00018B1601E0DB0BDE8F08F3B48807A00F04F
:103CE0001400002861D09DF8140000069DF81510FE
:103CF00040EA01409DF8161040EA01209DF8171097
:103D0000084328609DF8180000069DF8191040EA45
:103D100001409DF81A1040EA01209DF81B1008434D
:103D200068609DF81C0000069DF81D1040EA0140E7
:103D30009DF81E1040EA01209DF81F100843A8605E
:103D40009DF8200000069DF8211040EA01409DF8F2
:103D5000221040EA01209DF823100843E86004F196
:103D60001000C4B228680014019068680014029022
:103D7000A86800140390E868001404900198404378
:103D8000029901FB0100039901FB0100049901FB69
:103D9000010ABAF1706F02DBBAF1885F22DDFDF72C
:103DA00063FA00203080401E94E721E0B8AAB38D6A
:103DB000B4980D355D000000B8AAAAAAB088C3C5A2
:103DC000C700000009E3CA02E4040020D8B1B9F337
:103DD0008BA391B609B4D900DAB1B9F38BA391B62C
:103DE000DAB4DA00B6F9000040F48070308000BF29
:103DF0003448807A00F0400020B305A9601C085CBC
:103E0000095D40EA012000B2A8F8000005A9E01C05
:103E1000095C05AAA01C105C41EA002000B2A8F8C9
:103E2000020005A9601D095C201D105C41EA00200C
:103E300000B2A8F80400A01DC4B2B6F9000040F01A
:103E4000080030801F48408900F4C07008B305A9FD
:103E5000601C085C095D40EA012000B2388005A9B9
:103E6000E01C095C05AAA01C105C41EA002000B21D
:103E7000788005A9601D095C201D105C41EA0020C6
:103E800000B2B880A01DC4B2B6F9000040F07000C6
:103E900030800C48807A00F0030018B105A9081999
:103EA000FFF7B4FE4846FDF74CFD002012E701463F
:103EB000044801600020704701460248416000202C
:103EC00070470000E404002010B54FF48071F848FA
:103ED00002F045FA4FF40071F54802F040FA4FF451
:103EE0000071F34802F03DFA4FF48071F04802F09F
:103EF00038FA10BD10B54FF48071ED4802F02FFA7A
:103F00004FF40071EA4802F02CFA4FF40071E848CF
:103F100002F025FA10BD10B54FF48071E44802F0AC
:103F20001EFA4FF48071E24802F01BFA10BD2DE931
:103F3000F04105462C464FF48071DD4802F011FA3D
:103F400000261CE0274607F08007802F04D1B90027
:103F5000D74802F004FA04E04FF40071D44802F0AC
:103F600000FA6006040E4FF48071D14802F0F7F9B0
:103F70004FF48071CE4802F0F4F9701CC6B2082EDE
:103F8000E0DBBDE8F08110B50446FFF79DFF782027
:103F9000FFF7CDFFFFF7BFFF0020FFF7C8FFFFF7D8
:103FA000BAFF2046FFF7C3FFFFF7B5FFFFF7A2FFF9
:103FB00010BD10B50446FFF787FF7820FFF7B7FF65
:103FC000FFF7A9FF4020FFF7B2FFFFF7A4FF20464D
:103FD000FFF7ADFFFFF79FFFFFF78CFF10BD70B538
:103FE00004460D461DB1E0B2FFF7E3FF02E0E0B288
:103FF000FFF7C9FF70BD70B50646002418E004F154
:10400000B0000021FFF7EBFF00210846FFF7E7FFB4
:1040100000211020FFF7E3FF002505E001213046D5
:10402000FFF7DDFF681CC5B2802DF7DB601CC4B252
:10403000082CE4DB70BD06E041F6650100E0491E96
:104040000029FCD1401E0028F6D17047014605E04A
:10405000002001E0421CD0B27B28FBDB0A1EA1F14C
:104060000101F5D1704770B504460D4605F1B00069
:104070000021FFF7B4FF102141EA14100021FFF7DF
:10408000AEFF04F00F000021FFF7A9FF70BD10B5CF
:1040900000218D20FFF7A3FF00211420FFF79FFFD1
:1040A0000021AF20FFF79BFF10BD10B500218D2030
:1040B000FFF795FF00211020FFF791FF0021AE20B0
:1040C000FFF78DFF10BD70B5002418E004F1B000BB
:1040D0000021FFF784FF00210846FFF780FF002141
:1040E0001020FFF77CFF002505E001210020FFF7ED
:1040F00076FF681CC5B2802DF7DB601CC4B2082CAB
:10410000E4DB70BD70B5002418E004F1B0000021BC
:10411000FFF765FF00210846FFF761FF002110202F
:10412000FFF75DFF002505E001210846FFF757FF77
:10413000681CC5B2802DF7DB601CC4B2082CE4DB20
:1041400070BD2DE9F04707460E469046994600257A
:104150000024A8F12000C5B27F2F02DD0027B01C8B
:10416000C6B2B9F1100F24D131463846FFF77BFFB4
:10417000002408E004EB05114E4A505C0121FFF7D2
:104180002EFF601CC4B2082CF4DB701CC1B2384690
:10419000FFF769FF002409E004EB05110831454AE7
:1041A000505C0121FFF71BFF601CC4B2082CF3DB3D
:1041B00012E031463846FFF756FF00240AE005EBCF
:1041C00045013D4A02EB4101085D0121FFF707FF70
:1041D000601CC4B2062CF2DBBDE8F08710B50246C5
:1041E000012000E050430B1EA1F10104E1B2F9D11E
:1041F00010BD2DE9FF5F074691461E460E9D4FF00C
:10420000000A002435E0301B401EC1B20A20FFF72F
:10421000E5FFB9FBF0F00A21B0FBF1F201FB120857
:10422000BAF1000F14D1701EA04211DDB8F1000FD9
:104230000CD1AB4605EBDB71491001FB0471C8B230
:104240002B4620220199FFF77CFF10E04FF0010A76
:10425000AB4605EBDB71491001FB0471C8B208F1F4
:104260003001CAB22B460199FFF76BFF00BF601CFB
:10427000C4B2B442C7DBBDE8FF9F2DE9F04105465B
:104280000E4614461F460EE022783B46314628462D
:10429000FFF757FF05F10800C5B2782D02DD0025B4
:1042A000B01CC6B2641C20780028EDD1BDE8F081B6
:1042B000000C01402AAE000802AC00082DE9F041D4
:1042C00080460E461546002731464046FFF7CBFE96
:1042D00000240AE0F74A02EB8511085D0121FFF78F
:1042E0007EFE781CC7B2601CC4B2102CF2DB701CBE
:1042F000C1B24046FFF7B7FE00240CE06900491C3C
:10430000EC4A02EB4111085D0121FFF768FE781CC1
:10431000C7B2601CC4B2102CF0DBBDE8F0812DE9FF
:10432000F05F06460F4690461C46DDF828A04FF089
:10433000000BE11704EB5171C910A4EBC10131B9B5
:104340002046E11704EB5171C1F3C70506E0204692
:10435000E11704EB5171C910491CCDB23D4615E07F
:1043600029463046FFF77FFEB1460BE059460BF178
:10437000010B1AF801000121FFF731FE09F10100DC
:1043800000F0FF09C145F1DB681CC5B2A542E7DBBF
:10439000BDE8F09F2DE9FF5F86B014461D464FF043
:1043A000010A00200390049005904FF001090026B7
:1043B00000BF8346002213462046294604F0A2F996
:1043C00009D285F00040CDE900402046019904F073
:1043D0004EF9064604E02046294604F048F9064610
:1043E000304604F0F9F822462B46CDE9000104F0EE
:1043F00001F8074688460022AF4B3846414603F095
:10440000FCFFCDE9000104F051F9834607E009EB18
:1044100089004FEA40090AF1010000F0FF0A0A2072
:1044200096FBF0F090FBF9F00028F0D142F210700A
:1044300096FBF0F00A2190FBF1F201FB1200C0B2F2
:104440008DF80C004FF47A7096FBF0F090FBF1F2CF
:1044500001FB1200C0B28DF80D00642096FBF0F055
:1044600090FBF1F201FB1200C0B28DF80E000A20A1
:1044700096FBF0F090FBF1F201FB1200C0B28DF858
:104480000F000A2096FBF0F100FB1160C0B28DF81E
:1044900010002E208DF811004FF47A70BBFBF0F065
:1044A0000A21B0FBF1F201FB12008DF8120064202A
:1044B000BBFBF0F0B0FBF1F201FB12008DF8130032
:1044C0000A20BBFBF0F0B0FBF1F201FB12008DF80B
:1044D00014000A20BBFBF0F100FB11B08DF81500B1
:1044E00000211498801D03AA1154894608E003A8EE
:1044F00010F80900303003A901F8090009F1010999
:10450000B9F10A0FF3DB002213462046294604F0D6
:10451000F9F808D20AF1010000F0FF0A2D20CAF1D3
:10452000050103AA50542E208DF811000021149883
:10453000801D03AA1154CAF1050003A942180C23D7
:10454000DDE90610FFF799FE0AB0BDE8F09F2DE9FE
:10455000F04F89B08246894617469846DDF84CB040
:10456000012007900020049005900690012400256A
:1045700000BF00264FEAC9604FEA1069384641463D
:1045800004F075F80546284604F037F83A464346E5
:10459000CDE9000103F02EFFCDE902010022464BD8
:1045A000DDE9020103F029FFCDE9000104F07EF806
:1045B000064606E004EB840044000798401CC0B2A5
:1045C00007900A20B5FBF0F0B0FBF4F00028F1D121
:1045D00042F21070B5FBF0F00A21B0FBF1F201FBE2
:1045E00012008DF810004FF47A70B5FBF0F0B0FBBC
:1045F000F1F201FB12008DF811006420B5FBF0F020
:10460000B0FBF1F201FB12008DF812000A20B5FB9D
:10461000F0F0B0FBF1F201FB12008DF813002E2038
:104620008DF815004FF47A70B6FBF0F0B0FBF1F2A4
:1046300001FB12008DF816006420B6FBF0F0B0FB11
:10464000F1F201FB12008DF817000A20B6FBF0F022
:10465000B0FBF1F201FB12008DF818000A20B6FB46
:10466000F0F100FB11608DF8190000210BF106003C
:1046700004AA1154002405E004A8005D303004A908
:104680000855641C0A2CF7DB2E208DF8150000213C
:104690000BF1060004AA11541298C0F1050004A9F8
:1046A00042180C2351464846FFF7E7FD09B0BDE824
:1046B000F08F0000850000200088C3402DE9F04104
:1046C00005460F46164600BF05EB45014906080E94
:1046D0003946FFF7C8FC00240BE006F1100101EB9E
:1046E0004101FB4A02EB4101085D0121FFF777FC24
:1046F000641C062CF1DBBDE8F0812DE9F041054694
:104700000F46164600BF05EB45014906080E39461F
:10471000FFF7A9FC002409E006EB4601EC4A02EB96
:104720004101085D0121FFF75AFC641C062CF3DBF4
:10473000BDE8F0812DE9F047054689461646344626
:10474000002C22DA6442642094FBF0F100FB11405B
:104750000A2190FBF1F0C7B20A2094FBF0F100FBB4
:10476000114000F0FF080D2249462846FFF7C5FF1B
:10477000691CC8B23A464946FFF7A0FFA91CC8B257
:1047800042464946FFF79AFF20E0642094FBF0F18F
:1047900000FB11400A2190FBF1F0C7B20A2094FB04
:1047A000F0F100FB114000F0FF080B2249462846BB
:1047B000FFF7A3FF691CC8B23A464946FFF77EFFE0
:1047C000A91CC8B242464946FFF778FFBDE8F0870A
:1047D0002DE9F04705468A4616463446002C2DDA68
:1047E00064420D2251462846FFF787FF0A2094FBBA
:1047F000F0F100FB1140C7B20A2094FBF0F00A214F
:1048000090FBF1F201FB120000F0FF08642094FB22
:10481000F0F000F0FF09E91CC8B23A465146FFF734
:104820004DFFA91CC8B242465146FFF747FF691C1D
:10483000C8B24A465146FFF741FF2BE00B225146D2
:104840002846FFF75AFF0A2094FBF0F100FB1140C5
:10485000C7B20A2094FBF0F00A2190FBF1F201FBB1
:10486000120000F0FF08642094FBF0F000F0FF0954
:10487000E91CC8B23A465146FFF720FFA91CC8B24E
:1048800042465146FFF71AFF691CC8B24A465146D4
:10489000FFF714FFBDE8F0872DE9F05F05468B4672
:1048A00016463446002C00DA64424FF47A7094FBCA
:1048B000F0F0C7B24FF47A7094FBF0F100FB1140B6
:1048C000642190FBF1F000F0FF08642094FBF0F10C
:1048D00000FB11400A2190FBF1F000F0FF090A20D3
:1048E00094FBF0F100FB114000F0FF0A3A465946F4
:1048F0002846FFF7E3FE691CC8B242465946FFF757
:10490000DDFEA91CC8B24A465946FFF7D7FEE91C8E
:10491000C8B252465946FFF7D1FEBDE8F09F2DE9D7
:10492000F05F05460E46144642F21070B4FBF0F0FC
:10493000C7B242F21070B4FBF0F100FB11404FF42B
:104940007A71B0FBF1F000F0FF080846B4FBF0F11B
:1049500000FB11406421B0FBF1F000F0FF0964207E
:10496000B4FBF0F100FB11400A21B0FBF1FA0A2080
:10497000B4FBF0F100FB114B3A4631462846FFF7F5
:104980009DFE691CC8B242463146FFF797FEA91C3E
:10499000C8B24A463146FFF791FEE91CC8B25246FA
:1049A0003146FFF78BFE291DC8B25A463146FFF744
:1049B00085FEBDE8F09F08B50121092001F0DEFE6B
:1049C0000121444801F0EFFC4FF44070ADF80000C5
:1049D00010208DF8030003208DF8020069463E4840
:1049E00001F010FC4FF440713B4801F0B8FC4FF46B
:1049F0004870FBF770FD0021AE20FFF7F0FA0021B0
:104A00000846FFF7ECFA00211020FFF7E8FA002132
:104A10004020FFF7E4FA0021B020FFF7E0FA002180
:104A20008120FFF7DCFA0021FF20FFF7D8FA0021F0
:104A3000A120FFF7D4FA0021A620FFF7D0FA002129
:104A4000A820FFF7CCFA00213F20FFF7C8FA002189
:104A5000C820FFF7C4FA0021D320FFF7C0FA0021D5
:104A60000846FFF7BCFA0021D520FFF7B8FA00216D
:104A70008020FFF7B4FA0021D820FFF7B0FA002118
:104A80000520FFF7ACFA0021D920FFF7A8FA002192
:104A9000F120FFF7A4FA0021DA20FFF7A0FA0021A5
:104AA0001220FFF79CFA0021DB20FFF798FA002183
:104AB0003020FFF794FA00218D20FFF790FA0021B3
:104AC0001420FFF78CFA0021AF20FFF788FA08BD09
:104AD00002AC000800023000000C01401CB5684622
:104AE00000F0E2FD00F0DDFD08B900201CBD9DF8DE
:104AF0000000012803DB9DF80000032801DD0020F1
:104B0000F4E7BDF80200C82801DA0020EEE7012032
:104B1000ECE71CB5684600F0C7FDF848F8490860A6
:104B20009DF801004C2803D1F648F74908600DE0D4
:104B30009DF80100522803D1F448F349086005E0CC
:104B4000F348EF490860F348EF4908601CBD1CB505
:104B5000684600F0C7FD00F0C2FD08B900201CBD8A
:104B60009DF8070008B10020F9E79DF804000A2825
:104B700001DA0020F3E70120F1E7E548E0490860A9
:104B80000020E149086070472DE9FC41684600F0CB
:104B9000A9FDBDF9020003F011FD0746DE4903F04F
:104BA00015FB0546BDF9000003F008FD0746DB498B
:104BB00003F00CFB0646294603F0B0FA0446D84938
:104BC000204603F0DDFD01D2D54C05E0D549204655
:104BD00003F0CCFD00D2D34C204603F01BFDBDE812
:104BE000FC812DE9F04705460C46204603F0E6FC23
:104BF0008246CD480168504603F0E8FA80462846D0
:104C000003F0DCFC8246C9480168504603F0DEFA36
:104C10008146414603F082FA074603F0FBFC064654
:104C20003046BDE8F0872DE9F05F05460E46144694
:104C30000021204603F0C4FA8346BD480168584667
:104C400003F0C4FA81463146284603F0BCFA834695
:104C5000B8480168584603F0B9FA8246494603F05D
:104C60005DFA804603F0D6FC07463846BDE8F09F63
:104C70002DE9F84F04460D461646AF4FA819001B04
:104C8000AE490860AE48006803F098FC8346394698
:104C900003F09CFA8146A948006803F08FFC834624
:104CA00039464FF07E5003F08BFA5946009003F0DE
:104CB0008DFA8246494603F031FA804603F0AAFC99
:104CC000A0490860084600689D4908609E48006841
:104CD0009C49096808449C4908600846006844F6F5
:104CE0002061884201DD084608E09748006897493E
:104CF000884201DA084601E093480068924908605A
:104D000093480078012803D100200860904908707A
:104D10008D48006803F052FC83468E48016858466F
:104D200003F054FA81468748006803F047FC834645
:104D300089480168584603F049FA8246494603F01B
:104D4000EDF9804603F066FC844908600846006877
:104D5000BDE8F88F2DE9F041202001F0D9F90028B5
:104D60007ED07F48006800287AD1202001F0E1F948
:104D7000022000F012FA40427A490860042000F054
:104D80000CFA79490860794A79497A48FEF7CCF8F3
:104D9000794A7A497A48FCF712F87A4A7A497B4884
:104DA000FCF735F800F086FC00F0A2FCFFF796FE59
:104DB00010B1FFF7AEFE0AE0FFF7C9FE10B1FFF732
:104DC000DCFE04E000204E4908604F490860544969
:104DD0004D48006803F0D4FC01D2514809E0514924
:104DE0004948006803F0C2FC01D24E4801E0464841
:104DF000006845490860FFF771FE18B100204B4973
:104E0000086009E0FFF7A3FE18B1002047490860D9
:104E100002E05F48454908603948006803F0FAFB42
:104E20000546514802684F4801682846FFF720FFB1
:104E3000584908605248B0F9000003F0BFFB06462D
:104E40005448006803F0BAFB0746534801683846E7
:104E500003F064F90546324645480168284600E0FB
:104E60003DE0FFF7E0FE4D490860FFF737FE68B10F
:104E70002548006803F0CEFB054629463E48B0F9B8
:104E80000000FFF7AEFE464908600FE0FFF75FFE47
:104E900020B1FFF779FE4249086007E0002136485B
:104EA000B0F90000FFF79DFE3D4908603B480468EB
:104EB0003B480068201A3B49086039480068204494
:104EC00039490860374800F0E1F93748016835484A
:104ED000006800F004FA26492F4800F038FABDE8CF
:104EE000F08170B505460C4630A1284602F018FE48
:104EF00018B910480460012070BD59E0000020C1BD
:104F00000C040020000034C21004002000003442D1
:104F10000000A0C00000F0C1EC51383E0AD7A33E0B
:104F20000000C8420000C8C2280400202404002059
:104F300018040020140400203333333F44040020BD
:104F40003C0400204804002038040020E0B1FFFFAA
:104F50004D040020200400201C04002040040020F8
:104F600014812142180000201C00002008000020AD
:104F70000000002004000020100000200C00002091
:104F80000E00002016000020140000201200002057
:104F90009A99193F30040020080400202C040020B6
:104FA00034040020280000202C000020564B500024
:104FB00025A1284602F0B4FD18B924480460012058
:104FC00070BD23A1284602F0ABFD18B9214804604A
:104FD0000120F5E720A1284602F0A2FD18B91F48DC
:104FE00004600120ECE71EA1284602F099FD18B9E3
:104FF0001C4804600120E3E71BA1284602F090FD55
:1050000018B91A4804600120DAE70020D8E770B523
:10501000DDE9044510B1164E3668066011B10B4E3D
:1050200036680E6012B10B4E3668166013B10B4E27
:1050300036681E6014B10B4E3668266015B10B4EF3
:1050400036682E6070BD0000564B440018040020E6
:10505000534B50001C040020534B490020040020F7
:10506000524B500028040020524B440024040020DE
:105070001404002000B587B00121042001F07EFB5C
:105080000121084601F087FB04208DF81B00032056
:10509000ADF8180006A95C4801F0B4F803A801F0C7
:1050A000D1FF0020ADF81200ADF80E004FF6FF70F2
:1050B000ADF810000020ADF80C0003A94FF08040BF
:1050C00001F094FC00231A4603214FF0804002F0C7
:1050D0009CF8684601F0C9FF0A20ADF8080069464F
:1050E000400701F016FF01221146900701F0F5FF7D
:1050F00000214FF0804002F069FA0121880701F099
:10510000D1FF07B000BD00B587B00121082001F034
:1051100035FB0121042001F03EFB04208DF81B002B
:10512000C020ADF8180006A9384801F06BF803A8B4
:1051300001F088FF0020ADF81200ADF80E004FF628
:10514000FF70ADF810000020ADF80C0003A9304846
:1051500001F04CFC00231A4603212D4802F055F8BB
:10516000684601F082FF0A20ADF808006946284829
:1051700001F0CFFE0121264802F05AFA0122114621
:10518000234801F0AAFF0021214802F01FFA012163
:105190001F4801F087FF07B000BD70B50546022D1E
:1051A00002D0042D14D10AE04FF0804002F031FA11
:1051B00004B200214FF0804002F008FA0AE01448DF
:1051C00002F027FA04B20021114802F0FFF901E0D1
:1051D000002400BF00BF204670BD10B50121880724
:1051E00002F029FA18B10121880702F035FA10BD42
:1051F00010B50121064802F01EFA18B10121044839
:1052000002F02AFA10BD000000080140000C014025
:10521000000800400EB50121092001F0AFFA482036
:105220008DF803002020ADF8000003208DF8020067
:1052300069460B4800F0E6FF0521012001F0F8F86F
:105240002020019001208DF80A0000208DF8080030
:105250000C208DF8090001A800F0F4FE0EBD00003E
:10526000000C014008B50121082001F087FA102048
:105270008DF803004FF47040ADF8000003208DF866
:10528000020069463F4800F0BDFF08BD3E4B026882
:105290001B689A4202DD3C4A126802603B4B02687E
:1052A0001B689A4202DA394A12680260364B0A6871
:1052B0001B689A4202DD344A12680A60334B0A685E
:1052C0001B689A4202DA314A12680A607047014646
:1052D000002901DD0A4600E04A421046704770B5D9
:1052E00005460C46002D07DD0120294908600020F5
:1052F0002849C1F8BC0106E00020254908600120CA
:105300002449C1F8BC012846FFF7E1FF86B23146C7
:10531000214802F05FF9002C08DD01201C49091F1B
:10532000086000201B49C1F8B00107E000201849BF
:10533000091F086001201749C1F8B0012046FFF796
:10534000C6FF86B23146144802F04AF970BD2DE915
:10535000F04104460D462168286802F031FF0746F7
:1053600003F058F90646FFF7B2FF3C2807DD0B486B
:1053700001780078FFF7B3FF012009490870BDE804
:10538000F0810000000C01402000002024000020DB
:10539000B881214200802142002C01404C040020B1
:1053A0004D04002030B589B004460D46012140F679
:1053B000050001F0E3F918208DF823004FF4106088
:1053C000ADF8200003208DF8220008A91E4800F047
:1053D00019FF05A801F036FE0020ADF81A00ADF85F
:1053E0001600ADF81850ADF8144005A9174801F0A3
:1053F000FDFA6020ADF804000020ADF80C0001209B
:10540000ADF806000020ADF80A0001A90F4801F030
:105410002AFB01A90D4801F000FC01210B4801F015
:105420004DFE0821094801F06DFF0821074801F0F1
:1054300088FF0121054801F035FF0121034801F0F3
:1054400031FE09B030BD000000080140002C0140D1
:1054500070B505460C460020287020703021EA48BF
:1054600002F04CFB70BD10B586B003A804AB05AAD2
:10547000E6A10090E44802F06FFB0446032C01D043
:1054800006B010BD0598002802DA0020059004E05F
:105490000598FF2801DDFF2005900398002802DA17
:1054A0000020039006E00398B0F5803F02DB4FF642
:1054B000FF7003900598C0B28DF804009DF81000AD
:1054C0008DF80500039880B2ADF806009DF8040041
:1054D00008B1012000E000208DF808009DF80400CC
:1054E000CE4908709DF805004870BDF80600488058
:1054F0009DF8080008712820C94908700020C94992
:105500000870C9490870C9490870C949087000BFC6
:10551000B6E710B588B004A805A906AB07AACDE97F
:105520000010C4A1B84802F017FB0446042C01D0B7
:1055300008B010BD0798B0F5004F03DB47F6FF70C9
:10554000079005E0079810F5004F01DABD48079075
:105550000698B0F5004F03DB47F6FF70069005E0B4
:10556000069810F5004F01DAB648069005986428B1
:1055700002DD6420059004E00598002801DA00208F
:1055800005900498FF2802DDFF20049004E00498B1
:10559000002801DA00200490079800B2ADF8080056
:1055A000069800B2ADF80A000598C0B28DF80C005C
:1055B0000498C0B28DF80D009DF80D00C0F34000B6
:1055C0008DF80F009DF80D0000F0010020B19DF84E
:1055D0000F0008B9012000E000208DF80E00BDF892
:1055E000080099490880BDF80A0048809DF80C0021
:1055F00008719DF80D0048719DF80E0088719DF8A6
:105600000F00C87128209149087000208549087052
:1056100085490870854908708549087000BF87E78B
:1056200010B586B004460121082001F0A7F8012139
:10563000880401F0B0F84FF48060ADF81400032046
:105640008DF8160018208DF8170005A9804800F085
:10565000D9FD4FF40060ADF8140004208DF8170058
:1056600005A97B4800F0CEFD01940020ADF80800AC
:10567000ADF80A00ADF80C00ADF810000C20ADF844
:105680000E0001A9734802F02EF8012240F22551C4
:10569000704802F0C0F801216E4802F0B0F806B080
:1056A00010BD5E48007970475C490A6802608988CD
:1056B000818070475A48007800280FDD58480078EC
:1056C000401E574908700846007838B900205349F1
:1056D00008704E20487000204880087170475A4872
:1056E0008079704758490A6802604968416070478C
:1056F00056480078002812DD54480078401E53496F
:1057000008700846007850B900204F49088048804A
:10571000087102204871002088710120C87170470B
:1057200010B540F225514B4802F05AF9002849D0F3
:1057300040F22551474802F07DF9464802F0D0F882
:10574000C4B2242C12D101204349087000204349DF
:10575000087030212C4802F0D1F9404801780078D7
:10576000401C3E4A10702848445410BD3A48007806
:1057700000B9FAE7394800782F2804DB3749364862
:10578000FFF766FEF1E7354801780078401C334AA0
:1057900010701D484454232C14D100201A4912784B
:1057A000885408464078432802D1FFF75CFE05E0A4
:1057B000154840784C2801D1FFF7ABFE2749264811
:1057C000FFF746FE00BFD0E710B50446214621484A
:1057D00002F082F800BF40211E4802F0EBF80128D9
:1057E000F9D110BD70B50446204602F092F986B298
:1057F000002505E014F8010BFFF7E6FF681C85B2F1
:10580000B542F7DB70BD0000F404002024432C25D2
:10581000642C25632C256423000000005204002022
:10582000600400204E0400204F040020500400209B
:1058300051040020244C2C25642C25642C25642C38
:10584000256423000080FFFF58040020610400202D
:10585000000C014000480040620400206304002066
:1058600010B5044600BF8021F84802F0A3F80028D4
:10587000F9D02146F54802F02FF810BD70B5044666
:105880000D4603E014F8010BFFF7EAFF281EA5F10F
:1058900001018DB2F6D170BD70B5ED4C00252046EA
:1058A0004078442800D070BD16E020783A2811D105
:1058B0006078302802D0607831280BD1082D07DAC3
:1058C00060783038C2B22846691CCDB2E1490A542A
:1058D000A41C01E0641C00BF207810B120782328AC
:1058E000E3D1082D00DADEE70120DB490870DB494F
:1058F00008706421D64802F001F900BFD3E710B563
:1059000086B004460121480400F045FF012104202F
:1059100000F034FF0420ADF8140018208DF81700B3
:1059200003208DF8160005A9CD4800F06BFC082077
:10593000ADF8140004208DF8170005A9C84800F040
:1059400061FC01940020ADF80800ADF80A00ADF844
:105950000C00ADF810000C20ADF80E0001A9BB48FA
:1059600001F0C1FE012240F22551B84801F053FF79
:105970000121B64801F043FF06B010BD7CB50446D6
:105980000D46B8A103C9CDE900010CB1312000E0FA
:1059900030208DF8010030208DF803000DB131204A
:1059A00000E030208DF80500684602F0B2F886B2BB
:1059B00031466846FFF762FF7CBD10B50446242CD3
:1059C0000ED10120A94908700020A9490870084695
:1059D00001780078401CA64A1070A648445410BDB7
:1059E000A248007800B9FAE7A14801780078401C85
:1059F0009F4A10709F484454232C10D100209B498B
:105A000008701146087064229A49914802F05DF8C6
:105A10006421984802F072F8FFF73EFFDFE79448F0
:105A20000078642808DB00209049087090490870CD
:105A30006421904802F062F800BFD0E770B51026EC
:105A400012E08D4804888D480088844200D110E01F
:105A50008B48055D601C84B2642C00DB0024864802
:105A600004802846FFF7A9FF301EA6F10101CEB23F
:105A7000E7D100BF70BD78480078704781488249FF
:105A800008607047F0B57348017846788378C47829
:105A90000579477990F806C0C079024629B923B93B
:105AA0001CB915B90AB90020F0BD01B11EB9012A0F
:105AB00001D1901FF8E7BCF1000F00D01AB90129FD
:105AC00001D10520F0E701290FD1012E0DD1012BC5
:105AD0000BD154B9012D08D1012F06D1BCF1010F12
